:100000000C945D000C9485000C9485000C94850084
:100010000C9485000C9485000C9485000C9485004C
:100020000C9485000C9485000C9485000C9485003C
:100030000C9485000C9485000C9485000C9485002C
:100040000C94E0020C9485000C9485000C948500BF
:100050000C9485000C9485000C9485000C9485000C
:100060000C9485000C94850000000008000201003B
:100070000003040700000000000000000000000072
:10008000250028002B0000000000240027002A0083
:10009000040404040404040402020202020203032E
:1000A0000303030301020408102040800102040836
:1000B0001020010204081020C30311241FBECFEF3B
:1000C000D8E0DEBFCDBF11E0A0E0B1E0E2EDF7E0A7
:1000D00002C005900D92AA31B107D9F721E0AAE13B
:1000E000B1E001C01D92AB33B207E1F710E0CDE5FE
:1000F000D0E004C02197FE010E94E103CC35D10776
:10010000C9F70E942A030C94E7030C94000090E0C6
:10011000FC01EC55FF4F249180579F4FFC018491C7
:10012000882399F090E0880F991FFC01EA57FF4F50
:10013000A591B491FC01E458FF4F859194918FB73C
:10014000F894EC91E22BEC938FBF0895AF92BF929D
:10015000CF92DF92EF92FF920F931F93CF93DF9393
:100160006C017B018B01040F151FEB015E01AE18C2
:10017000BF08C017D10759F06991D601ED91FC91E4
:100180000190F081E02DC6010995892B79F7C50111
:10019000DF91CF911F910F91FF90EF90DF90CF9063
:1001A000BF90AF90089590E0FC01E859FF4F249173
:1001B000FC01EC55FF4F3491FC01E057FF4FE491F7
:1001C000EE23C9F0222339F0233001F1A8F42130C5
:1001D00019F1223029F1F0E0EE0FFF1FE458FF4F34
:1001E000A591B4918FB7F894EC91611126C0309528
:1001F0003E233C938FBF08952730A9F02830C9F0E3
:10020000243049F7809180008F7D03C08091800069
:100210008F7780938000DFCF84B58F7784BDDBCF6D
:1002200084B58F7DFBCF8091B0008F778093B00035
:10023000D2CF8091B0008F7DF9CF3E2BDACF3FB780
:10024000F89480911F0190912001A0912101B0911B
:10025000220126B5A89B05C02F3F19F00196A11DCC
:10026000B11D3FBFBA2FA92F982F8827BC01CD0100
:10027000620F711D811D911D42E0660F771F881F5F
:10028000991F4A95D1F708958F929F92AF92BF928E
:10029000CF92DF92EF92FF920E941F014B015C010F
:1002A00080EDC82E87E0D82EE12CF12C0E941F0192
:1002B000681979098A099B09683E7340810591058F
:1002C000A8F321E0C21AD108E108F10888EE880EEF
:1002D00083E0981EA11CB11CC114D104E104F104F7
:1002E00029F7FF90EF90DF90CF90BF90AF909F9055
:1002F0008F900895089590E080E00895FC010190AA
:100300000020E9F73197AF01481B590BBC0183E28C
:1003100091E00C94A600CF93DF93EC0160E08E8116
:100320000E94D30061E08E810E94D30060E08E8144
:100330000E94D3008BE891E00197F1F7DF91CF9114
:100340000895CF92DF92EF92FF920F931F93CF9376
:10035000DF936C017C0187E0E80EF11CD0E0C0E087
:10036000062F10E0B8010C2E02C0759567950A940F
:10037000E2F76170F70181917F010E94D30021961D
:10038000C430D10579F7C601DF91CF911F910F914C
:10039000FF90EF90DF90CF900C948B01CF92DF9283
:1003A000EF92FF920F931F93CF93DF93EC01F62E02
:1003B000642F8C810E94D3008D818F3F19F060E003
:1003C0000E94D3000F2D10E08F8584FF25C06E01A1
:1003D00087E0C80ED11CF12CE12CB8010E2C02C014
:1003E000759567950A94E2F76170F60181916F0146
:1003F0000E94D300FFEFEF1AFF0A88E0E816F1042D
:1004000061F7CE01DF91CF911F910F91FF90EF9097
:10041000DF90CF900C948B01B80184E075956795BF
:100420008A95E1F7CE010E94A1016F2DCE01DF91E7
:10043000CF911F910F91FF90EF90DF90CF900C9490
:10044000A10140E0682F83E291E00C94CE0181E0AD
:100450000E9421028BE39FE10197F1F70895CF936A
:10046000DF93823029F490913201986090933201A9
:10047000809336011092370180E48093380180E147
:100480008093390180E580933A01809127010E9491
:100490008700809128018F3F11F00E948700809192
:1004A00029010E948700C3E2D1E09E01235231401E
:1004B0008091320184FD0AC084E090E021962817E3
:1004C00039073CF48E810E948700EFCF88E090E0EE
:1004D000F5CF8BE39DE00197F1F760E08091270174
:1004E0000E94D30060E0809129010E94D300809196
:1004F00028018F3F19F060E00E94D3008091320103
:1005000084FD34C063E083E291E00E94A101CBE46A
:10051000D6E4CE010197F1F763E083E291E00E9417
:10052000A1012197F1F763E083E291E00E94A1012C
:1005300083E592E00197F1F762E083E291E00E94A7
:10054000A1018091320180620E94210284E08093A7
:1005500033018CE00E9421020E94270282E08093F6
:10056000340186E0DF91CF910C94210280620E94D9
:1005700021028BE496E40197F1F7809132018062C9
:100580000E94210283E592E00197F1F78091320108
:1005900080620E942102D5CFE1E080913601811175
:1005A000E0E0E195F0E0ED5DFE4F84898B5F8068CF
:1005B0000C94210241E00E94CE0181E090E0089578
:1005C0001F920F920FB60F9211242F933F938F9388
:1005D0009F93AF93BF9380911B0190911C01A091B9
:1005E0001D01B0911E0130911A0123E0230F2D3718
:1005F00058F50196A11DB11D20931A0180931B018E
:1006000090931C01A0931D01B0931E0180911F01C6
:1006100090912001A0912101B09122010196A11D8C
:10062000B11D80931F0190932001A0932101B093ED
:100630002201BF91AF919F918F913F912F910F9088
:100640000FBE0F901F90189526E8230F0296A11D4C
:10065000B11DD2CF789484B5826084BD84B58160A9
:1006600084BD85B5826085BD85B5816085BD80917D
:100670006E00816080936E001092810080918100F5
:1006800082608093810080918100816080938100ED
:10069000809180008160809380008091B1008460AF
:1006A0008093B1008091B00081608093B000809110
:1006B0007A00846080937A0080917A0082608093CF
:1006C0007A0080917A00816080937A0080917A002C
:1006D000806880937A001092C10082E00E942F020D
:1006E00080E00E94870081E00E94870082E00E94F3
:1006F0008700C0E0D0E061E080E00E94D30060E0CD
:1007000081E00E94D30060E082E00E94D3000E945A
:10071000CC028CE091E00E947E010E9444010E9484
:10072000270260E080E00E94D30061E081E00E9447
:10073000D30060E082E00E94D3000E94CC0281E1FD
:1007400091E00E947E010E9444010E94270260E025
:1007500080E00E94D30060E081E00E94D30061E06D
:1007600082E00E94D3000E94CC0286E191E00E94C8
:100770007E010E9444010E942702209709F4BBCF0A
:100780000E940000B8CFE3E2F1E01382128284E01D
:1007900091E0918380838DE084838FEF85838CE06B
:1007A00086838BE087838AE0808789E0818788E081
:1007B00082871386148615861686178681E00C9428
:1007C0002F02EE0FFF1F0590F491E02D0994F8948D
:0207D000FFCF59
:1007D20000000000DA02A6007B017A0153544F5058
:0A07E200005741495400474F000042
:00000001FF
